{
  "contractName": "AccessControlled",
  "abi": [
    {
      "constant": true,
      "inputs": [],
      "name": "isAdmin",
      "outputs": [
        {
          "name": "",
          "type": "bool"
        }
      ],
      "payable": false,
      "stateMutability": "view",
      "type": "function"
    },
    {
      "inputs": [
        {
          "name": "_ownerAddress",
          "type": "address"
        },
        {
          "name": "_isAdmin",
          "type": "bool"
        }
      ],
      "payable": false,
      "stateMutability": "nonpayable",
      "type": "constructor"
    }
  ],
  "bytecode": "0x608060405234801561001057600080fd5b5060405161014d38038061014d8339818101604052604081101561003357600080fd5b81019080805190602001909291908051906020019092919050505080600060146101000a81548160ff021916908315150217905550816000806101000a81548173ffffffffffffffffffffffffffffffffffffffff021916908373ffffffffffffffffffffffffffffffffffffffff16021790555050506095806100b86000396000f3fe6080604052348015600f57600080fd5b506004361060285760003560e01c8063b6db75a014602d575b600080fd5b6033604d565b604051808215151515815260200191505060405180910390f35b600060149054906101000a900460ff168156fea265627a7a723058203662a4528a5f2f55f613ab017300752587ef2112ae1796748421359a8066d83e64736f6c634300050a0032",
  "source": "//pragma solidity ^0.5.9;\r\n\r\ncontract AccessControlled {\r\n    \r\n    address ownerAddress;\r\n    bool public isAdmin;\r\n\r\n    constructor(address _ownerAddress, bool _isAdmin) public {\r\n        isAdmin = _isAdmin;\r\n        ownerAddress = _ownerAddress;\r\n    }\r\n\r\n    // We define the modifiers used as part of our functions here.\r\n    modifier onlyAdmin {\r\n        require(isAdmin, \"Only the admin can perform this operation\");\r\n        _;\r\n    }\r\n}",
  "sourcePath": "C:\\Users\\Shubham Jain\\Desktop\\myTruffelProject\\contracts\\AccessControlled.sol",
  "compiler": {
    "name": "solc",
    "version": "0.5.10+commit.5a6ea5b1.Emscripten.clang"
  },
  "schemaVersion": "3.4.5",
  "updatedAt": "2022-03-19T18:29:44.987Z",
  "devdoc": {
    "methods": {}
  },
  "userdoc": {
    "methods": {}
  }
}