{
  "contractName": "KYC",
  "abi": [
    {
      "constant": true,
      "inputs": [
        {
          "name": "",
          "type": "address"
        }
      ],
      "name": "banks",
      "outputs": [
        {
          "name": "bankName",
          "type": "string"
        },
        {
          "name": "ethAddress",
          "type": "address"
        },
        {
          "name": "complaintsReported",
          "type": "int256"
        },
        {
          "name": "KYC_count",
          "type": "int256"
        },
        {
          "name": "isAllowToVote",
          "type": "bool"
        },
        {
          "name": "regNumber",
          "type": "string"
        }
      ],
      "payable": false,
      "stateMutability": "view",
      "type": "function"
    },
    {
      "constant": true,
      "inputs": [
        {
          "name": "",
          "type": "string"
        }
      ],
      "name": "customers",
      "outputs": [
        {
          "name": "userName",
          "type": "string"
        },
        {
          "name": "customerData",
          "type": "string"
        },
        {
          "name": "kycStatus",
          "type": "bool"
        },
        {
          "name": "downVote",
          "type": "int256"
        },
        {
          "name": "upVote",
          "type": "int256"
        },
        {
          "name": "bank",
          "type": "address"
        }
      ],
      "payable": false,
      "stateMutability": "view",
      "type": "function"
    },
    {
      "constant": true,
      "inputs": [],
      "name": "isAdmin",
      "outputs": [
        {
          "name": "",
          "type": "bool"
        }
      ],
      "payable": false,
      "stateMutability": "view",
      "type": "function"
    },
    {
      "constant": true,
      "inputs": [
        {
          "name": "",
          "type": "string"
        }
      ],
      "name": "KYC_requests",
      "outputs": [
        {
          "name": "userName",
          "type": "string"
        },
        {
          "name": "bankAddress",
          "type": "address"
        },
        {
          "name": "customerData",
          "type": "string"
        }
      ],
      "payable": false,
      "stateMutability": "view",
      "type": "function"
    },
    {
      "inputs": [],
      "payable": false,
      "stateMutability": "nonpayable",
      "type": "constructor"
    },
    {
      "constant": false,
      "inputs": [
        {
          "name": "_userName",
          "type": "string"
        },
        {
          "name": "_customerData",
          "type": "string"
        }
      ],
      "name": "addCustomer",
      "outputs": [],
      "payable": false,
      "stateMutability": "nonpayable",
      "type": "function"
    },
    {
      "constant": true,
      "inputs": [
        {
          "name": "_userName",
          "type": "string"
        }
      ],
      "name": "viewCustomer",
      "outputs": [
        {
          "name": "",
          "type": "string"
        },
        {
          "name": "",
          "type": "string"
        },
        {
          "name": "",
          "type": "address"
        }
      ],
      "payable": false,
      "stateMutability": "view",
      "type": "function"
    },
    {
      "constant": false,
      "inputs": [
        {
          "name": "_userName",
          "type": "string"
        },
        {
          "name": "_newcustomerData",
          "type": "string"
        }
      ],
      "name": "modifyCustomer",
      "outputs": [],
      "payable": false,
      "stateMutability": "nonpayable",
      "type": "function"
    },
    {
      "constant": false,
      "inputs": [
        {
          "name": "_userName",
          "type": "string"
        },
        {
          "name": "_customerData",
          "type": "string"
        }
      ],
      "name": "addRequest",
      "outputs": [],
      "payable": false,
      "stateMutability": "nonpayable",
      "type": "function"
    },
    {
      "constant": false,
      "inputs": [
        {
          "name": "_customerUserName",
          "type": "string"
        }
      ],
      "name": "removeRequest",
      "outputs": [],
      "payable": false,
      "stateMutability": "nonpayable",
      "type": "function"
    },
    {
      "constant": false,
      "inputs": [
        {
          "name": "_bankAddress",
          "type": "address"
        }
      ],
      "name": "bankComplaints",
      "outputs": [],
      "payable": false,
      "stateMutability": "nonpayable",
      "type": "function"
    },
    {
      "constant": false,
      "inputs": [
        {
          "name": "_userName",
          "type": "string"
        }
      ],
      "name": "upVoteCustomer",
      "outputs": [],
      "payable": false,
      "stateMutability": "nonpayable",
      "type": "function"
    },
    {
      "constant": false,
      "inputs": [
        {
          "name": "_userName",
          "type": "string"
        }
      ],
      "name": "downVoteCustomer",
      "outputs": [],
      "payable": false,
      "stateMutability": "nonpayable",
      "type": "function"
    },
    {
      "constant": true,
      "inputs": [
        {
          "name": "_bankAddress",
          "type": "address"
        }
      ],
      "name": "viewBankDetils",
      "outputs": [
        {
          "name": "",
          "type": "string"
        },
        {
          "name": "",
          "type": "string"
        },
        {
          "name": "",
          "type": "bool"
        },
        {
          "name": "",
          "type": "int256"
        },
        {
          "name": "",
          "type": "int256"
        }
      ],
      "payable": false,
      "stateMutability": "view",
      "type": "function"
    },
    {
      "constant": false,
      "inputs": [
        {
          "name": "_bankAddress",
          "type": "address"
        },
        {
          "name": "_bankName",
          "type": "string"
        }
      ],
      "name": "reportBank",
      "outputs": [],
      "payable": false,
      "stateMutability": "nonpayable",
      "type": "function"
    },
    {
      "constant": false,
      "inputs": [
        {
          "name": "bankName",
          "type": "string"
        },
        {
          "name": "_bankAddress",
          "type": "address"
        },
        {
          "name": "bankRegNumber",
          "type": "string"
        }
      ],
      "name": "addBank",
      "outputs": [],
      "payable": false,
      "stateMutability": "nonpayable",
      "type": "function"
    },
    {
      "constant": false,
      "inputs": [
        {
          "name": "_bankAddress",
          "type": "address"
        },
        {
          "name": "isAllowToVote",
          "type": "bool"
        }
      ],
      "name": "bankisAllowedToVote",
      "outputs": [],
      "payable": false,
      "stateMutability": "nonpayable",
      "type": "function"
    },
    {
      "constant": false,
      "inputs": [
        {
          "name": "_bankAddress",
          "type": "address"
        }
      ],
      "name": "removeBnak",
      "outputs": [],
      "payable": false,
      "stateMutability": "nonpayable",
      "type": "function"
    }
  ],
  "bytecode": "0x608060405234801561001057600080fd5b5033600180600060146101000a81548160ff021916908315150217905550816000806101000a81548173ffffffffffffffffffffffffffffffffffffffff021916908373ffffffffffffffffffffffffffffffffffffffff16021790555050506149288061007f6000396000f3fe608060405234801561001057600080fd5b506004361061010b5760003560e01c8063a82c98d0116100a2578063ccfa8e7111610071578063ccfa8e7114610caa578063cd837e2e14610d98578063e777c79414610eda578063f37efcf414610f1e578063f72860ca146110f15761010b565b8063a82c98d01461086f578063b238520414610a5b578063b6db75a014610b36578063b9da4af814610b585761010b565b80636cba00e6116100de5780636cba00e6146105405780637c3b0d36146105fb57806380c3b8c21461063f57806382e0438a146107b45761010b565b8063107925bb146101105780633190abc0146102e3578063569e64bc146104355780635db392da146104f0575b600080fd5b6101c96004803603602081101561012657600080fd5b810190808035906020019064010000000081111561014357600080fd5b82018360208201111561015557600080fd5b8035906020019184600183028401116401000000008311171561017757600080fd5b91908080601f016020809104026020016040519081016040528093929190818152602001838380828437600081840152601f19601f820116905080830192505050505050509192919290505050611243565b6040518080602001806020018473ffffffffffffffffffffffffffffffffffffffff1673ffffffffffffffffffffffffffffffffffffffff168152602001838103835286818151815260200191508051906020019080838360005b8381101561023f578082015181840152602081019050610224565b50505050905090810190601f16801561026c5780820380516001836020036101000a031916815260200191505b50838103825285818151815260200191508051906020019080838360005b838110156102a557808201518184015260208101905061028a565b50505050905090810190601f1680156102d25780820380516001836020036101000a031916815260200191505b509550505050505060405180910390f35b610433600480360360408110156102f957600080fd5b810190808035906020019064010000000081111561031657600080fd5b82018360208201111561032857600080fd5b8035906020019184600183028401116401000000008311171561034a57600080fd5b91908080601f016020809104026020016040519081016040528093929190818152602001838380828437600081840152601f19601f820116905080830192505050505050509192919290803590602001906401000000008111156103ad57600080fd5b8201836020820111156103bf57600080fd5b803590602001918460018302840111640100000000831117156103e157600080fd5b91908080601f016020809104026020016040519081016040528093929190818152602001838380828437600081840152601f19601f82011690508083019250505050505050919291929050505061169f565b005b6104ee6004803603602081101561044b57600080fd5b810190808035906020019064010000000081111561046857600080fd5b82018360208201111561047a57600080fd5b8035906020019184600183028401116401000000008311171561049c57600080fd5b91908080601f016020809104026020016040519081016040528093929190818152602001838380828437600081840152601f19601f820116905080830192505050505050509192919290505050611aca565b005b61053e6004803603604081101561050657600080fd5b81019080803573ffffffffffffffffffffffffffffffffffffffff169060200190929190803515159060200190929190505050611e98565b005b6105f96004803603602081101561055657600080fd5b810190808035906020019064010000000081111561057357600080fd5b82018360208201111561058557600080fd5b803590602001918460018302840111640100000000831117156105a757600080fd5b91908080601f016020809104026020016040519081016040528093929190818152602001838380828437600081840152601f19601f820116905080830192505050505050509192919290505050612146565b005b61063d6004803603602081101561061157600080fd5b81019080803573ffffffffffffffffffffffffffffffffffffffff16906020019092919050505061242e565b005b6106816004803603602081101561065557600080fd5b81019080803573ffffffffffffffffffffffffffffffffffffffff1690602001909291905050506125c0565b60405180806020018773ffffffffffffffffffffffffffffffffffffffff1673ffffffffffffffffffffffffffffffffffffffff1681526020018681526020018581526020018415151515815260200180602001838103835289818151815260200191508051906020019080838360005b8381101561070d5780820151818401526020810190506106f2565b50505050905090810190601f16801561073a5780820380516001836020036101000a031916815260200191505b50838103825284818151815260200191508051906020019080838360005b83811015610773578082015181840152602081019050610758565b50505050905090810190601f1680156107a05780820380516001836020036101000a031916815260200191505b509850505050505050505060405180910390f35b61086d600480360360208110156107ca57600080fd5b81019080803590602001906401000000008111156107e757600080fd5b8201836020820111156107f957600080fd5b8035906020019184600183028401116401000000008311171561081b57600080fd5b91908080601f016020809104026020016040519081016040528093929190818152602001838380828437600081840152601f19601f820116905080830192505050505050509192919290505050612759565b005b6109286004803603602081101561088557600080fd5b81019080803590602001906401000000008111156108a257600080fd5b8201836020820111156108b457600080fd5b803590602001918460018302840111640100000000831117156108d657600080fd5b91908080601f016020809104026020016040519081016040528093929190818152602001838380828437600081840152601f19601f820116905080830192505050505050509192919290505050612b27565b604051808060200180602001871515151581526020018681526020018581526020018473ffffffffffffffffffffffffffffffffffffffff1673ffffffffffffffffffffffffffffffffffffffff168152602001838103835289818151815260200191508051906020019080838360005b838110156109b4578082015181840152602081019050610999565b50505050905090810190601f1680156109e15780820380516001836020036101000a031916815260200191505b50838103825288818151815260200191508051906020019080838360005b83811015610a1a5780820151818401526020810190506109ff565b50505050905090810190601f168015610a475780820380516001836020036101000a031916815260200191505b509850505050505050505060405180910390f35b610b3460048036036040811015610a7157600080fd5b81019080803573ffffffffffffffffffffffffffffffffffffffff16906020019092919080359060200190640100000000811115610aae57600080fd5b820183602082011115610ac057600080fd5b80359060200191846001830284011164010000000083111715610ae257600080fd5b91908080601f016020809104026020016040519081016040528093929190818152602001838380828437600081840152601f19601f820116905080830192505050505050509192919290505050612cd6565b005b610b3e613038565b604051808215151515815260200191505060405180910390f35b610ca860048036036040811015610b6e57600080fd5b8101908080359060200190640100000000811115610b8b57600080fd5b820183602082011115610b9d57600080fd5b80359060200191846001830284011164010000000083111715610bbf57600080fd5b91908080601f016020809104026020016040519081016040528093929190818152602001838380828437600081840152601f19601f82011690508083019250505050505050919291929080359060200190640100000000811115610c2257600080fd5b820183602082011115610c3457600080fd5b80359060200191846001830284011164010000000083111715610c5657600080fd5b91908080601f016020809104026020016040519081016040528093929190818152602001838380828437600081840152601f19601f82011690508083019250505050505050919291929050505061304b565b005b610d9660048036036060811015610cc057600080fd5b8101908080359060200190640100000000811115610cdd57600080fd5b820183602082011115610cef57600080fd5b80359060200191846001830284011164010000000083111715610d1157600080fd5b9091929391929390803573ffffffffffffffffffffffffffffffffffffffff16906020019092919080359060200190640100000000811115610d5257600080fd5b820183602082011115610d6457600080fd5b80359060200191846001830284011164010000000083111715610d8657600080fd5b9091929391929390505050613695565b005b610dda60048036036020811015610dae57600080fd5b81019080803573ffffffffffffffffffffffffffffffffffffffff169060200190929190505050613a97565b60405180806020018060200186151515158152602001858152602001848152602001838103835288818151815260200191508051906020019080838360005b83811015610e34578082015181840152602081019050610e19565b50505050905090810190601f168015610e615780820380516001836020036101000a031916815260200191505b50838103825287818151815260200191508051906020019080838360005b83811015610e9a578082015181840152602081019050610e7f565b50505050905090810190601f168015610ec75780820380516001836020036101000a031916815260200191505b5097505050505050505060405180910390f35b610f1c60048036036020811015610ef057600080fd5b81019080803573ffffffffffffffffffffffffffffffffffffffff169060200190929190505050613e47565b005b610fd760048036036020811015610f3457600080fd5b8101908080359060200190640100000000811115610f5157600080fd5b820183602082011115610f6357600080fd5b80359060200191846001830284011164010000000083111715610f8557600080fd5b91908080601f016020809104026020016040519081016040528093929190818152602001838380828437600081840152601f19601f8201169050808301925050505050505091929192905050506141a8565b60405180806020018473ffffffffffffffffffffffffffffffffffffffff1673ffffffffffffffffffffffffffffffffffffffff16815260200180602001838103835286818151815260200191508051906020019080838360005b8381101561104d578082015181840152602081019050611032565b50505050905090810190601f16801561107a5780820380516001836020036101000a031916815260200191505b50838103825284818151815260200191508051906020019080838360005b838110156110b3578082015181840152602081019050611098565b50505050905090810190601f1680156110e05780820380516001836020036101000a031916815260200191505b509550505050505060405180910390f35b6112416004803603604081101561110757600080fd5b810190808035906020019064010000000081111561112457600080fd5b82018360208201111561113657600080fd5b8035906020019184600183028401116401000000008311171561115857600080fd5b91908080601f016020809104026020016040519081016040528093929190818152602001838380828437600081840152601f19601f820116905080830192505050505050509192919290803590602001906401000000008111156111bb57600080fd5b8201836020820111156111cd57600080fd5b803590602001918460018302840111640100000000831117156111ef57600080fd5b91908080601f016020809104026020016040519081016040528093929190818152602001838380828437600081840152601f19601f820116905080830192505050505050509192919290505050614338565b005b6060806000836040516020018082805190602001908083835b6020831061127f578051825260208201915060208101905060208303925061125c565b6001836020036101000a038019825116818451168082178552505050505050905001915050604051602081830303815290604052805190602001206001856040518082805190602001908083835b602083106112f057805182526020820191506020810190506020830392506112cd565b6001836020036101000a038019825116818451168082178552505050505050905001915050908152602001604051809103902060000160405160200180828054600181600116156101000203166002900480156113845780601f10611362576101008083540402835291820191611384565b820191906000526020600020905b815481529060010190602001808311611370575b505091505060405160208183030381529060405280519060200120146113f5576040517f08c379a00000000000000000000000000000000000000000000000000000000081526004018080602001828103825260278152602001806148266027913960400191505060405180910390fd5b6001846040518082805190602001908083835b6020831061142b5780518252602082019150602081019050602083039250611408565b6001836020036101000a03801982511681845116808217855250505050505090500191505090815260200160405180910390206000016001856040518082805190602001908083835b602083106114975780518252602082019150602081019050602083039250611474565b6001836020036101000a03801982511681845116808217855250505050505090500191505090815260200160405180910390206001016001866040518082805190602001908083835b6020831061150357805182526020820191506020810190506020830392506114e0565b6001836020036101000a038019825116818451168082178552505050505050905001915050908152602001604051809103902060050160009054906101000a900473ffffffffffffffffffffffffffffffffffffffff16828054600181600116156101000203166002900480601f0160208091040260200160405190810160405280929190818152602001828054600181600116156101000203166002900480156115ef5780601f106115c4576101008083540402835291602001916115ef565b820191906000526020600020905b8154815290600101906020018083116115d257829003601f168201915b50505050509250818054600181600116156101000203166002900480601f01602080910402602001604051908101604052809291908181526020018280546001816001161561010002031660029004801561168b5780601f106116605761010080835404028352916020019161168b565b820191906000526020600020905b81548152906001019060200180831161166e57829003601f168201915b505050505091509250925092509193909250565b600073ffffffffffffffffffffffffffffffffffffffff166001836040518082805190602001908083835b602083106116ed57805182526020820191506020810190506020830392506116ca565b6001836020036101000a038019825116818451168082178552505050505050905001915050908152602001604051809103902060050160009054906101000a900473ffffffffffffffffffffffffffffffffffffffff1673ffffffffffffffffffffffffffffffffffffffff16146117b0576040517f08c379a000000000000000000000000000000000000000000000000000000000815260040180806020018281038252605181526020018061484d6051913960600191505060405180910390fd5b816001836040518082805190602001908083835b602083106117e757805182526020820191506020810190506020830392506117c4565b6001836020036101000a0380198251168184511680821785525050505050509050019150509081526020016040518091039020600001908051906020019061183092919061460e565b50806001836040518082805190602001908083835b602083106118685780518252602082019150602081019050602083039250611845565b6001836020036101000a038019825116818451168082178552505050505050905001915050908152602001604051809103902060010190805190602001906118b192919061460e565b50336001836040518082805190602001908083835b602083106118e957805182526020820191506020810190506020830392506118c6565b6001836020036101000a038019825116818451168082178552505050505050905001915050908152602001604051809103902060050160006101000a81548173ffffffffffffffffffffffffffffffffffffffff021916908373ffffffffffffffffffffffffffffffffffffffff16021790555060006001836040518082805190602001908083835b602083106119955780518252602082019150602081019050602083039250611972565b6001836020036101000a038019825116818451168082178552505050505050905001915050908152602001604051809103902060020160006101000a81548160ff02191690831515021790555060006001836040518082805190602001908083835b60208310611a1a57805182526020820191506020810190506020830392506119f7565b6001836020036101000a03801982511681845116808217855250505050505090500191505090815260200160405180910390206003018190555060006001836040518082805190602001908083835b60208310611a8c5780518252602082019150602081019050602083039250611a69565b6001836020036101000a0380198251168184511680821785525050505050509050019150509081526020016040518091039020600401819055505050565b60006001826040518082805190602001908083835b60208310611b025780518252602082019150602081019050602083039250611adf565b6001836020036101000a038019825116818451168082178552505050505050905001915050908152602001604051809103902060050160009054906101000a900473ffffffffffffffffffffffffffffffffffffffff16905060011515600360008373ffffffffffffffffffffffffffffffffffffffff1673ffffffffffffffffffffffffffffffffffffffff16815260200190815260200160002060040160009054906101000a900460ff1615151415611c08576040517f08c379a000000000000000000000000000000000000000000000000000000000815260040180806020018281038252602f8152602001806148c5602f913960400191505060405180910390fd5b816040516020018082805190602001908083835b60208310611c3f5780518252602082019150602081019050602083039250611c1c565b6001836020036101000a038019825116818451168082178552505050505050905001915050604051602081830303815290604052805190602001206001836040518082805190602001908083835b60208310611cb05780518252602082019150602081019050602083039250611c8d565b6001836020036101000a03801982511681845116808217855250505050505090500191505090815260200160405180910390206000016040516020018082805460018160011615610100020316600290048015611d445780601f10611d22576101008083540402835291820191611d44565b820191906000526020600020905b815481529060010190602001808311611d30575b50509150506040516020818303038152906040528051906020012014611db5576040517f08c379a00000000000000000000000000000000000000000000000000000000081526004018080602001828103825260278152602001806148266027913960400191505060405180910390fd5b600180836040518082805190602001908083835b60208310611dec5780518252602082019150602081019050602083039250611dc9565b6001836020036101000a038019825116818451168082178552505050505050905001915050908152602001604051809103902060040154016001836040518082805190602001908083835b60208310611e5a5780518252602082019150602081019050602083039250611e37565b6001836020036101000a0380198251168184511680821785525050505050509050019150509081526020016040518091039020600401819055505050565b600060149054906101000a900460ff16611efd576040517f08c379a00000000000000000000000000000000000000000000000000000000081526004018080602001828103825260298152602001806147d26029913960400191505060405180910390fd5b600060149054906101000a900460ff16611f7f576040517f08c379a000000000000000000000000000000000000000000000000000000000815260040180806020018281038252601c8152602001807f4f6e6c792061646d696e2063616e20616464206e65772062616e6b2e0000000081525060200191505060405180910390fd5b600360008373ffffffffffffffffffffffffffffffffffffffff1673ffffffffffffffffffffffffffffffffffffffff16815260200190815260200160002060010160009054906101000a900473ffffffffffffffffffffffffffffffffffffffff1673ffffffffffffffffffffffffffffffffffffffff168273ffffffffffffffffffffffffffffffffffffffff1614612082576040517f08c379a00000000000000000000000000000000000000000000000000000000081526004018080602001828103825260168152602001807f42616e6b206973206e6f74206578697374207965742e0000000000000000000081525060200191505060405180910390fd5b80600360008473ffffffffffffffffffffffffffffffffffffffff1673ffffffffffffffffffffffffffffffffffffffff16815260200190815260200160002060040160006101000a81548160ff02191690831515021790555060048290806001815401808255809150509060018203906000526020600020016000909192909190916101000a81548173ffffffffffffffffffffffffffffffffffffffff021916908373ffffffffffffffffffffffffffffffffffffffff160217905550505050565b806040516020018082805190602001908083835b6020831061217d578051825260208201915060208101905060208303925061215a565b6001836020036101000a038019825116818451168082178552505050505050905001915050604051602081830303815290604052805190602001206002826040518082805190602001908083835b602083106121ee57805182526020820191506020810190506020830392506121cb565b6001836020036101000a038019825116818451168082178552505050505050905001915050908152602001604051809103902060000160405160200180828054600181600116156101000203166002900480156122825780601f10612260576101008083540402835291820191612282565b820191906000526020600020905b81548152906001019060200180831161226e575b505091505060405160208183030381529060405280519060200120146122f3576040517f08c379a00000000000000000000000000000000000000000000000000000000081526004018080602001828103825260288152602001806147aa6028913960400191505060405180910390fd5b60006001826040518082805190602001908083835b6020831061232b5780518252602082019150602081019050602083039250612308565b6001836020036101000a038019825116818451168082178552505050505050905001915050908152602001604051809103902060020160006101000a81548160ff0219169083151502179055506002816040518082805190602001908083835b602083106123ae578051825260208201915060208101905060208303925061238b565b6001836020036101000a0380198251168184511680821785525050505050509050019150509081526020016040518091039020600080820160006123f2919061468e565b6001820160006101000a81549073ffffffffffffffffffffffffffffffffffffffff0219169055600282016000612429919061468e565b505050565b600360008273ffffffffffffffffffffffffffffffffffffffff1673ffffffffffffffffffffffffffffffffffffffff16815260200190815260200160002060010160009054906101000a900473ffffffffffffffffffffffffffffffffffffffff1673ffffffffffffffffffffffffffffffffffffffff168173ffffffffffffffffffffffffffffffffffffffff1614612531576040517f08c379a00000000000000000000000000000000000000000000000000000000081526004018080602001828103825260168152602001807f42616e6b206973206e6f74206578697374207965742e0000000000000000000081525060200191505060405180910390fd5b6001600360008373ffffffffffffffffffffffffffffffffffffffff1673ffffffffffffffffffffffffffffffffffffffff1681526020019081526020016000206002015401600360008373ffffffffffffffffffffffffffffffffffffffff1673ffffffffffffffffffffffffffffffffffffffff1681526020019081526020016000206002018190555050565b6003602052806000526040600020600091509050806000018054600181600116156101000203166002900480601f01602080910402602001604051908101604052809291908181526020018280546001816001161561010002031660029004801561266c5780601f106126415761010080835404028352916020019161266c565b820191906000526020600020905b81548152906001019060200180831161264f57829003601f168201915b5050505050908060010160009054906101000a900473ffffffffffffffffffffffffffffffffffffffff16908060020154908060030154908060040160009054906101000a900460ff1690806005018054600181600116156101000203166002900480601f01602080910402602001604051908101604052809291908181526020018280546001816001161561010002031660029004801561274f5780601f106127245761010080835404028352916020019161274f565b820191906000526020600020905b81548152906001019060200180831161273257829003601f168201915b5050505050905086565b60006001826040518082805190602001908083835b60208310612791578051825260208201915060208101905060208303925061276e565b6001836020036101000a038019825116818451168082178552505050505050905001915050908152602001604051809103902060050160009054906101000a900473ffffffffffffffffffffffffffffffffffffffff16905060011515600360008373ffffffffffffffffffffffffffffffffffffffff1673ffffffffffffffffffffffffffffffffffffffff16815260200190815260200160002060040160009054906101000a900460ff1615151415612897576040517f08c379a000000000000000000000000000000000000000000000000000000000815260040180806020018281038252602f8152602001806148c5602f913960400191505060405180910390fd5b816040516020018082805190602001908083835b602083106128ce57805182526020820191506020810190506020830392506128ab565b6001836020036101000a038019825116818451168082178552505050505050905001915050604051602081830303815290604052805190602001206001836040518082805190602001908083835b6020831061293f578051825260208201915060208101905060208303925061291c565b6001836020036101000a038019825116818451168082178552505050505050905001915050908152602001604051809103902060000160405160200180828054600181600116156101000203166002900480156129d35780601f106129b15761010080835404028352918201916129d3565b820191906000526020600020905b8154815290600101906020018083116129bf575b50509150506040516020818303038152906040528051906020012014612a44576040517f08c379a00000000000000000000000000000000000000000000000000000000081526004018080602001828103825260278152602001806148266027913960400191505060405180910390fd5b600180836040518082805190602001908083835b60208310612a7b5780518252602082019150602081019050602083039250612a58565b6001836020036101000a038019825116818451168082178552505050505050905001915050908152602001604051809103902060030154016001836040518082805190602001908083835b60208310612ae95780518252602082019150602081019050602083039250612ac6565b6001836020036101000a0380198251168184511680821785525050505050509050019150509081526020016040518091039020600301819055505050565b600181805160208101820180518482526020830160208501208183528095505050505050600091509050806000018054600181600116156101000203166002900480601f016020809104026020016040519081016040528092919081815260200182805460018160011615610100020316600290048015612be95780601f10612bbe57610100808354040283529160200191612be9565b820191906000526020600020905b815481529060010190602001808311612bcc57829003601f168201915b505050505090806001018054600181600116156101000203166002900480601f016020809104026020016040519081016040528092919081815260200182805460018160011615610100020316600290048015612c875780601f10612c5c57610100808354040283529160200191612c87565b820191906000526020600020905b815481529060010190602001808311612c6a57829003601f168201915b5050505050908060020160009054906101000a900460ff16908060030154908060040154908060050160009054906101000a900473ffffffffffffffffffffffffffffffffffffffff16905086565b600360008373ffffffffffffffffffffffffffffffffffffffff1673ffffffffffffffffffffffffffffffffffffffff16815260200190815260200160002060010160009054906101000a900473ffffffffffffffffffffffffffffffffffffffff1673ffffffffffffffffffffffffffffffffffffffff168273ffffffffffffffffffffffffffffffffffffffff1614612dd9576040517f08c379a00000000000000000000000000000000000000000000000000000000081526004018080602001828103825260168152602001807f42616e6b206973206e6f74206578697374207965742e0000000000000000000081525060200191505060405180910390fd5b806040516020018082805190602001908083835b60208310612e105780518252602082019150602081019050602083039250612ded565b6001836020036101000a03801982511681845116808217855250505050505090500191505060405160208183030381529060405280519060200120600360008473ffffffffffffffffffffffffffffffffffffffff1673ffffffffffffffffffffffffffffffffffffffff1681526020019081526020016000206000016040516020018082805460018160011615610100020316600290048015612eeb5780601f10612ec9576101008083540402835291820191612eeb565b820191906000526020600020905b815481529060010190602001808311612ed7575b50509150506040516020818303038152906040528051906020012014612f79576040517f08c379a00000000000000000000000000000000000000000000000000000000081526004018080602001828103825260168152602001807f42616e6b206973206e6f742076616c6964207965742e0000000000000000000081525060200191505060405180910390fd5b6000600360048054905081612f8a57fe5b049050600360008473ffffffffffffffffffffffffffffffffffffffff1673ffffffffffffffffffffffffffffffffffffffff16815260200190815260200160002060020154811315613033576000600360008573ffffffffffffffffffffffffffffffffffffffff1673ffffffffffffffffffffffffffffffffffffffff16815260200190815260200160002060040160006101000a81548160ff0219169083151502179055505b505050565b600060149054906101000a900460ff1681565b60006001836040518082805190602001908083835b602083106130835780518252602082019150602081019050602083039250613060565b6001836020036101000a038019825116818451168082178552505050505050905001915050908152602001604051809103902060050160009054906101000a900473ffffffffffffffffffffffffffffffffffffffff169050600360008273ffffffffffffffffffffffffffffffffffffffff1673ffffffffffffffffffffffffffffffffffffffff16815260200190815260200160002060010160009054906101000a900473ffffffffffffffffffffffffffffffffffffffff1673ffffffffffffffffffffffffffffffffffffffff166001846040518082805190602001908083835b6020831061318b5780518252602082019150602081019050602083039250613168565b6001836020036101000a038019825116818451168082178552505050505050905001915050908152602001604051809103902060050160009054906101000a900473ffffffffffffffffffffffffffffffffffffffff1673ffffffffffffffffffffffffffffffffffffffff16141561324f576040517f08c379a000000000000000000000000000000000000000000000000000000000815260040180806020018281038252602b8152602001806147fb602b913960400191505060405180910390fd5b600115156001846040518082805190602001908083835b602083106132895780518252602082019150602081019050602083039250613266565b6001836020036101000a038019825116818451168082178552505050505050905001915050908152602001604051809103902060020160009054906101000a900460ff1615151415613326576040517f08c379a000000000000000000000000000000000000000000000000000000000815260040180806020018281038252602781526020018061489e6027913960400191505060405180910390fd5b60011515600360008373ffffffffffffffffffffffffffffffffffffffff1673ffffffffffffffffffffffffffffffffffffffff16815260200190815260200160002060040160009054906101000a900460ff16151514156133d3576040517f08c379a000000000000000000000000000000000000000000000000000000000815260040180806020018281038252602e81526020018061477c602e913960400191505060405180910390fd5b826002846040518082805190602001908083835b6020831061340a57805182526020820191506020810190506020830392506133e7565b6001836020036101000a0380198251168184511680821785525050505050509050019150509081526020016040518091039020600001908051906020019061345392919061460e565b50816002846040518082805190602001908083835b6020831061348b5780518252602082019150602081019050602083039250613468565b6001836020036101000a038019825116818451168082178552505050505050905001915050908152602001604051809103902060020190805190602001906134d492919061460e565b50806002846040518082805190602001908083835b6020831061350c57805182526020820191506020810190506020830392506134e9565b6001836020036101000a038019825116818451168082178552505050505050905001915050908152602001604051809103902060010160006101000a81548173ffffffffffffffffffffffffffffffffffffffff021916908373ffffffffffffffffffffffffffffffffffffffff1602179055506001600360008373ffffffffffffffffffffffffffffffffffffffff1673ffffffffffffffffffffffffffffffffffffffff1681526020019081526020016000206003015401600360008373ffffffffffffffffffffffffffffffffffffffff1673ffffffffffffffffffffffffffffffffffffffff16815260200190815260200160002060030181905550600180846040518082805190602001908083835b602083106136435780518252602082019150602081019050602083039250613620565b6001836020036101000a038019825116818451168082178552505050505050905001915050908152602001604051809103902060020160006101000a81548160ff021916908315150217905550505050565b600060149054906101000a900460ff166136fa576040517f08c379a00000000000000000000000000000000000000000000000000000000081526004018080602001828103825260298152602001806147d26029913960400191505060405180910390fd5b600060149054906101000a900460ff1661377c576040517f08c379a000000000000000000000000000000000000000000000000000000000815260040180806020018281038252601c8152602001807f4f6e6c792064646d696e2063616e20616464206e65772062616e6b2e0000000081525060200191505060405180910390fd5b600360008473ffffffffffffffffffffffffffffffffffffffff1673ffffffffffffffffffffffffffffffffffffffff16815260200190815260200160002060010160009054906101000a900473ffffffffffffffffffffffffffffffffffffffff1673ffffffffffffffffffffffffffffffffffffffff168373ffffffffffffffffffffffffffffffffffffffff161415613880576040517f08c379a000000000000000000000000000000000000000000000000000000000815260040180806020018281038252601a8152602001807f42616e6b20697320616c7265616479206578697374207965742e00000000000081525060200191505060405180910390fd5b8484600360008673ffffffffffffffffffffffffffffffffffffffff1673ffffffffffffffffffffffffffffffffffffffff16815260200190815260200160002060000191906138d19291906146d6565b5082600360008573ffffffffffffffffffffffffffffffffffffffff1673ffffffffffffffffffffffffffffffffffffffff16815260200190815260200160002060010160006101000a81548173ffffffffffffffffffffffffffffffffffffffff021916908373ffffffffffffffffffffffffffffffffffffffff1602179055506000600360008573ffffffffffffffffffffffffffffffffffffffff1673ffffffffffffffffffffffffffffffffffffffff168152602001908152602001600020600201819055506000600360008573ffffffffffffffffffffffffffffffffffffffff1673ffffffffffffffffffffffffffffffffffffffff168152602001908152602001600020600301819055506001600360008573ffffffffffffffffffffffffffffffffffffffff1673ffffffffffffffffffffffffffffffffffffffff16815260200190815260200160002060040160006101000a81548160ff0219169083151502179055508181600360008673ffffffffffffffffffffffffffffffffffffffff1673ffffffffffffffffffffffffffffffffffffffff1681526020019081526020016000206005019190613a8f9291906146d6565b505050505050565b6060806000806000600360008773ffffffffffffffffffffffffffffffffffffffff1673ffffffffffffffffffffffffffffffffffffffff16815260200190815260200160002060010160009054906101000a900473ffffffffffffffffffffffffffffffffffffffff1673ffffffffffffffffffffffffffffffffffffffff168673ffffffffffffffffffffffffffffffffffffffff1614613ba2576040517f08c379a00000000000000000000000000000000000000000000000000000000081526004018080602001828103825260168152602001807f42616e6b206973206e6f74206578697374207965742e0000000000000000000081525060200191505060405180910390fd5b600360008773ffffffffffffffffffffffffffffffffffffffff1673ffffffffffffffffffffffffffffffffffffffff168152602001908152602001600020600001600360008873ffffffffffffffffffffffffffffffffffffffff1673ffffffffffffffffffffffffffffffffffffffff168152602001908152602001600020600501600360008973ffffffffffffffffffffffffffffffffffffffff1673ffffffffffffffffffffffffffffffffffffffff16815260200190815260200160002060040160009054906101000a900460ff16600360008a73ffffffffffffffffffffffffffffffffffffffff1673ffffffffffffffffffffffffffffffffffffffff16815260200190815260200160002060020154600360008b73ffffffffffffffffffffffffffffffffffffffff1673ffffffffffffffffffffffffffffffffffffffff16815260200190815260200160002060030154848054600181600116156101000203166002900480601f016020809104026020016040519081016040528092919081815260200182805460018160011615610100020316600290048015613d915780601f10613d6657610100808354040283529160200191613d91565b820191906000526020600020905b815481529060010190602001808311613d7457829003601f168201915b50505050509450838054600181600116156101000203166002900480601f016020809104026020016040519081016040528092919081815260200182805460018160011615610100020316600290048015613e2d5780601f10613e0257610100808354040283529160200191613e2d565b820191906000526020600020905b815481529060010190602001808311613e1057829003601f168201915b505050505093509450945094509450945091939590929450565b600060149054906101000a900460ff16613eac576040517f08c379a00000000000000000000000000000000000000000000000000000000081526004018080602001828103825260298152602001806147d26029913960400191505060405180910390fd5b600060149054906101000a900460ff16613f2e576040517f08c379a000000000000000000000000000000000000000000000000000000000815260040180806020018281038252601c8152602001807f4f6e6c792064646d696e2063616e20616464206e65772062616e6b2e0000000081525060200191505060405180910390fd5b600360008273ffffffffffffffffffffffffffffffffffffffff1673ffffffffffffffffffffffffffffffffffffffff16815260200190815260200160002060010160009054906101000a900473ffffffffffffffffffffffffffffffffffffffff1673ffffffffffffffffffffffffffffffffffffffff168173ffffffffffffffffffffffffffffffffffffffff1614614031576040517f08c379a00000000000000000000000000000000000000000000000000000000081526004018080602001828103825260168152602001807f42616e6b206973206e6f74206578697374207965742e0000000000000000000081525060200191505060405180910390fd5b600360008273ffffffffffffffffffffffffffffffffffffffff1673ffffffffffffffffffffffffffffffffffffffff16815260200190815260200160002060008082016000614081919061468e565b6001820160006101000a81549073ffffffffffffffffffffffffffffffffffffffff0219169055600282016000905560038201600090556004820160006101000a81549060ff02191690556005820160006140dc919061468e565b505060008090505b6004805490508110156141a4578173ffffffffffffffffffffffffffffffffffffffff166004828154811061411557fe5b9060005260206000200160009054906101000a900473ffffffffffffffffffffffffffffffffffffffff1673ffffffffffffffffffffffffffffffffffffffff161415614197576004818154811061416957fe5b9060005260206000200160006101000a81549073ffffffffffffffffffffffffffffffffffffffff02191690555b80806001019150506140e4565b5050565b600281805160208101820180518482526020830160208501208183528095505050505050600091509050806000018054600181600116156101000203166002900480601f01602080910402602001604051908101604052809291908181526020018280546001816001161561010002031660029004801561426a5780601f1061423f5761010080835404028352916020019161426a565b820191906000526020600020905b81548152906001019060200180831161424d57829003601f168201915b5050505050908060010160009054906101000a900473ffffffffffffffffffffffffffffffffffffffff1690806002018054600181600116156101000203166002900480601f01602080910402602001604051908101604052809291908181526020018280546001816001161561010002031660029004801561432e5780601f106143035761010080835404028352916020019161432e565b820191906000526020600020905b81548152906001019060200180831161431157829003601f168201915b5050505050905083565b60006001836040518082805190602001908083835b60208310614370578051825260208201915060208101905060208303925061434d565b6001836020036101000a038019825116818451168082178552505050505050905001915050908152602001604051809103902060050160009054906101000a900473ffffffffffffffffffffffffffffffffffffffff169050600073ffffffffffffffffffffffffffffffffffffffff166001846040518082805190602001908083835b6020831061441757805182526020820191506020810190506020830392506143f4565b6001836020036101000a038019825116818451168082178552505050505050905001915050908152602001604051809103902060050160009054906101000a900473ffffffffffffffffffffffffffffffffffffffff1673ffffffffffffffffffffffffffffffffffffffff1614156144db576040517f08c379a00000000000000000000000000000000000000000000000000000000081526004018080602001828103825260278152602001806148266027913960400191505060405180910390fd5b60011515600360008373ffffffffffffffffffffffffffffffffffffffff1673ffffffffffffffffffffffffffffffffffffffff16815260200190815260200160002060040160009054906101000a900460ff1615151415614588576040517f08c379a000000000000000000000000000000000000000000000000000000000815260040180806020018281038252602e81526020018061477c602e913960400191505060405180910390fd5b816001846040518082805190602001908083835b602083106145bf578051825260208201915060208101905060208303925061459c565b6001836020036101000a0380198251168184511680821785525050505050509050019150509081526020016040518091039020600101908051906020019061460892919061460e565b50505050565b828054600181600116156101000203166002900490600052602060002090601f016020900481019282601f1061464f57805160ff191683800117855561467d565b8280016001018555821561467d579182015b8281111561467c578251825591602001919060010190614661565b5b50905061468a9190614756565b5090565b50805460018160011615610100020316600290046000825580601f106146b457506146d3565b601f0160209004906000526020600020908101906146d29190614756565b5b50565b828054600181600116156101000203166002900490600052602060002090601f016020900481019282601f1061471757803560ff1916838001178555614745565b82800160010185558215614745579182015b82811115614744578235825591602001919060010190614729565b5b5090506147529190614756565b5090565b61477891905b8082111561477457600081600090555060010161475c565b5090565b9056fe546869732062616e6b206973206e6f7420616c6c6f7720746f20646f204b5943206f6620637573746f6d6572202e546869732075736572204b5943207265717565737420686173204e4f5420657869737420796574214f6e6c79207468652061646d696e2063616e20706572666f726d2074686973206f7065726174696f6e437573746f6d6572206973206e6f742070726573656e7420696e207468652062616e6b2073797374656d2e437573746f6d6572206973206e6f742070726573656e7420696e20746865206461746162617365437573746f6d657220697320616c72656164792070726573656e742c20706c656173652063616c6c206d6f64696679437573746f6d657220746f20656469742074686520637573746f6d65722064617461546869732075736572204b5943205265717565737420697320616c726561647920616464656421546869732062616e6b206973206e6f7420616c6c6f7720746f20646f20766f746520666f7220637573746f6d65722ea265627a7a7230582088ed2a575ba355c752eb2299ee30c49bfab838e4bd095fd1771e5237027320f464736f6c634300050a0032",
  "source": "//pragma solidity ^0.5.9;\r\n\r\nimport './AccessControlled.sol';\r\n\r\ncontract KYC  is AccessControlled { \r\n\r\n\tstruct Customer  {\r\n\t\tstring userName;\r\n\t\tstring customerData;\r\n        bool kycStatus;\r\n        int256 downVote;\r\n        int256 upVote;\r\n        address bank;\r\n\t}\r\n    \r\n    mapping(string => Customer) public customers;\r\n\r\n    struct KYC_request {\r\n        string userName;\r\n        address bankAddress;\r\n        string customerData;\r\n    } \r\n\r\n    mapping(string => KYC_request) public KYC_requests;\r\n    \r\n    struct Bank {\r\n        string bankName;\r\n        address ethAddress;\r\n        int256 complaintsReported;\r\n        int256 KYC_count;\r\n        bool isAllowToVote;\r\n        string regNumber;\r\n    }\r\n\r\n    mapping(address => Bank) public banks;\r\n    address[] bankCount;\r\n\r\n\r\n    constructor() AccessControlled(msg.sender,true) public {\r\n\t\t// No action required here.\r\n\t}\r\n\r\n\r\n    //Cusomer functions \r\n    function addCustomer(string memory _userName, string memory _customerData) public {\r\n        require(customers[_userName].bank == address(0), \"Customer is already present, please call modifyCustomer to edit the customer data\");\r\n        customers[_userName].userName = _userName;\r\n        customers[_userName].customerData = _customerData;\r\n        customers[_userName].bank = msg.sender;\r\n        customers[_userName].kycStatus  = false;\r\n        customers[_userName].downVote  = 0;\r\n        customers[_userName].upVote = 0;\r\n    }\r\n    \r\n    function viewCustomer(string memory _userName) public view returns (string memory, string memory, address) {   \r\n        require(keccak256(abi.encodePacked(customers[_userName].userName)) ==  keccak256(abi.encodePacked(_userName)), \"Customer is not present in the database\");\r\n        return (customers[_userName].userName, customers[_userName].customerData, customers[_userName].bank);\r\n    }\r\n    \r\n    function modifyCustomer(string memory _userName, string memory _newcustomerData) public {\r\n        address bankAddress = customers[_userName].bank;\r\n        require(customers[_userName].bank != address(0), \"Customer is not present in the database\");\r\n        require(banks[bankAddress].isAllowToVote != true, \"This bank is not allow to do KYC of customer .\");\r\n        customers[_userName].customerData = _newcustomerData;\r\n    }    \r\n  \r\n    //Bank Interface \r\n    function addRequest(string memory _userName, string memory _customerData) public {\r\n\t    address bankAddress = customers[_userName].bank;\r\n        require(customers[_userName].bank != banks[bankAddress].ethAddress, \"Customer is not present in the bank system.\");   \r\n        require(customers[_userName].kycStatus != true, \"This user KYC Request is already added!\");      \r\n        require(banks[bankAddress].isAllowToVote != true, \"This bank is not allow to do KYC of customer .\");\r\n        KYC_requests[_userName].userName = _userName;\r\n\t\tKYC_requests[_userName].customerData = _customerData;\r\n        KYC_requests[_userName].bankAddress = bankAddress;\r\n        banks[bankAddress].KYC_count = banks[bankAddress].KYC_count + 1;\r\n        customers[_userName].kycStatus = true;\r\n\t}\r\n\r\n    function removeRequest(string  memory _customerUserName) public {\r\n\t    require(keccak256(abi.encodePacked(KYC_requests[_customerUserName].userName)) == keccak256(abi.encodePacked(_customerUserName)), \"This user KYC request has NOT exist yet!\");   \r\n\t\tcustomers[_customerUserName].kycStatus = false;\r\n        delete KYC_requests[_customerUserName];\r\n\t}\r\n    \r\n    function bankComplaints(address _bankAddress) public {\r\n       require(_bankAddress == banks[_bankAddress].ethAddress, \"Bank is not exist yet.\");\r\n       banks[_bankAddress].complaintsReported =  banks[_bankAddress].complaintsReported + 1;   \r\n    }\r\n       \r\n    function upVoteCustomer(string memory _userName)  public { \r\n       address bankAddress = customers[_userName].bank;\r\n       require(banks[bankAddress].isAllowToVote != true, \"This bank is not allow to do vote for customer.\");\r\n       require(keccak256(abi.encodePacked(customers[_userName].userName)) ==  keccak256(abi.encodePacked(_userName)), \"Customer is not present in the database\");\r\n       customers[_userName].upVote = customers[_userName].upVote + 1;\r\n    }\r\n\r\n    function  downVoteCustomer(string memory _userName) public {\r\n       address bankAddress = customers[_userName].bank;\r\n       require(banks[bankAddress].isAllowToVote != true, \"This bank is not allow to do vote for customer.\");\r\n       require(keccak256(abi.encodePacked(customers[_userName].userName)) ==  keccak256(abi.encodePacked(_userName)), \"Customer is not present in the database\");\r\n       customers[_userName].downVote = customers[_userName].downVote + 1;          \r\n    }\r\n\r\n\r\n    function  viewBankDetils(address _bankAddress) public view returns (string memory,string memory, bool, int256, int256) {\r\n        require(_bankAddress == banks[_bankAddress].ethAddress, \"Bank is not exist yet.\");\r\n        return (banks[_bankAddress].bankName, \r\n               banks[_bankAddress].regNumber, \r\n               banks[_bankAddress].isAllowToVote, \r\n               banks[_bankAddress].complaintsReported, \r\n               banks[_bankAddress].KYC_count);\r\n    }\r\n\r\n    function reportBank(address _bankAddress, string memory _bankName) public {\r\n      require(_bankAddress == banks[_bankAddress].ethAddress, \"Bank is not exist yet.\");\r\n      require(keccak256(abi.encodePacked(banks[_bankAddress].bankName)) ==  keccak256(abi.encodePacked(_bankName)), \"Bank is not valid yet.\");   \r\n      int256 calcComplaint =  int(bankCount.length / 3);\r\n      if(calcComplaint > banks[_bankAddress].complaintsReported){\r\n            banks[_bankAddress].isAllowToVote = false;\r\n      }              \r\n    }\r\n  \r\n\r\n    // Admin functions\r\n    function addBank(string calldata bankName, address _bankAddress, string calldata bankRegNumber)  external onlyAdmin {\r\n       require(isAdmin, \"Only ddmin can add new bank.\");\r\n       require(_bankAddress != banks[_bankAddress].ethAddress, \"Bank is already exist yet.\");\r\n       banks[_bankAddress].bankName  = bankName;\r\n       banks[_bankAddress].ethAddress = _bankAddress;  \r\n       banks[_bankAddress].complaintsReported = 0;\r\n       banks[_bankAddress].KYC_count = 0;\r\n       banks[_bankAddress].isAllowToVote = true;\r\n       banks[_bankAddress].regNumber = bankRegNumber;  \r\n    }\r\n   \r\n    function bankisAllowedToVote(address _bankAddress, bool isAllowToVote)  external onlyAdmin  {\r\n       require(isAdmin, \"Only admin can add new bank.\");\r\n       require(_bankAddress == banks[_bankAddress].ethAddress, \"Bank is not exist yet.\");\r\n       banks[_bankAddress].isAllowToVote = isAllowToVote;      \r\n       bankCount.push(_bankAddress);\r\n    }\r\n    \r\n    function removeBnak(address _bankAddress) external onlyAdmin  {\r\n\t  require(isAdmin, \"Only ddmin can add new bank.\");\r\n      require(_bankAddress == banks[_bankAddress].ethAddress, \"Bank is not exist yet.\");\r\n      delete banks[_bankAddress]; \r\n      for(uint i = 0; i< bankCount.length; i++){\r\n          if(bankCount[i] ==_bankAddress){\r\n             delete bankCount[i];\r\n          }\r\n      }   \r\n    }\r\n}",
  "sourcePath": "C:\\Users\\Shubham Jain\\Desktop\\myTruffelProject\\contracts\\KYC.sol",
  "compiler": {
    "name": "solc",
    "version": "0.5.10+commit.5a6ea5b1.Emscripten.clang"
  },
  "schemaVersion": "3.4.5",
  "updatedAt": "2022-03-19T18:29:44.996Z",
  "devdoc": {
    "methods": {}
  },
  "userdoc": {
    "methods": {}
  }
}